{
  "contractName": "NFTCollection",
  "abi": [
    {
      "inputs": [],
      "stateMutability": "nonpayable",
      "type": "constructor"
    },
    {
      "anonymous": false,
      "inputs": [
        {
          "indexed": true,
          "internalType": "address",
          "name": "owner",
          "type": "address"
        },
        {
          "indexed": true,
          "internalType": "address",
          "name": "approved",
          "type": "address"
        },
        {
          "indexed": true,
          "internalType": "uint256",
          "name": "tokenId",
          "type": "uint256"
        }
      ],
      "name": "Approval",
      "type": "event"
    },
    {
      "anonymous": false,
      "inputs": [
        {
          "indexed": true,
          "internalType": "address",
          "name": "owner",
          "type": "address"
        },
        {
          "indexed": true,
          "internalType": "address",
          "name": "operator",
          "type": "address"
        },
        {
          "indexed": false,
          "internalType": "bool",
          "name": "approved",
          "type": "bool"
        }
      ],
      "name": "ApprovalForAll",
      "type": "event"
    },
    {
      "anonymous": false,
      "inputs": [
        {
          "indexed": true,
          "internalType": "address",
          "name": "from",
          "type": "address"
        },
        {
          "indexed": true,
          "internalType": "address",
          "name": "to",
          "type": "address"
        },
        {
          "indexed": true,
          "internalType": "uint256",
          "name": "tokenId",
          "type": "uint256"
        }
      ],
      "name": "Transfer",
      "type": "event"
    },
    {
      "inputs": [
        {
          "internalType": "address",
          "name": "to",
          "type": "address"
        },
        {
          "internalType": "uint256",
          "name": "tokenId",
          "type": "uint256"
        }
      ],
      "name": "approve",
      "outputs": [],
      "stateMutability": "nonpayable",
      "type": "function"
    },
    {
      "inputs": [
        {
          "internalType": "address",
          "name": "owner",
          "type": "address"
        }
      ],
      "name": "balanceOf",
      "outputs": [
        {
          "internalType": "uint256",
          "name": "",
          "type": "uint256"
        }
      ],
      "stateMutability": "view",
      "type": "function",
      "constant": true
    },
    {
      "inputs": [
        {
          "internalType": "uint256",
          "name": "tokenId",
          "type": "uint256"
        }
      ],
      "name": "getApproved",
      "outputs": [
        {
          "internalType": "address",
          "name": "",
          "type": "address"
        }
      ],
      "stateMutability": "view",
      "type": "function",
      "constant": true
    },
    {
      "inputs": [
        {
          "internalType": "address",
          "name": "owner",
          "type": "address"
        },
        {
          "internalType": "address",
          "name": "operator",
          "type": "address"
        }
      ],
      "name": "isApprovedForAll",
      "outputs": [
        {
          "internalType": "bool",
          "name": "",
          "type": "bool"
        }
      ],
      "stateMutability": "view",
      "type": "function",
      "constant": true
    },
    {
      "inputs": [],
      "name": "name",
      "outputs": [
        {
          "internalType": "string",
          "name": "",
          "type": "string"
        }
      ],
      "stateMutability": "view",
      "type": "function",
      "constant": true
    },
    {
      "inputs": [
        {
          "internalType": "uint256",
          "name": "tokenId",
          "type": "uint256"
        }
      ],
      "name": "ownerOf",
      "outputs": [
        {
          "internalType": "address",
          "name": "",
          "type": "address"
        }
      ],
      "stateMutability": "view",
      "type": "function",
      "constant": true
    },
    {
      "inputs": [
        {
          "internalType": "address",
          "name": "from",
          "type": "address"
        },
        {
          "internalType": "address",
          "name": "to",
          "type": "address"
        },
        {
          "internalType": "uint256",
          "name": "tokenId",
          "type": "uint256"
        }
      ],
      "name": "safeTransferFrom",
      "outputs": [],
      "stateMutability": "nonpayable",
      "type": "function"
    },
    {
      "inputs": [
        {
          "internalType": "address",
          "name": "from",
          "type": "address"
        },
        {
          "internalType": "address",
          "name": "to",
          "type": "address"
        },
        {
          "internalType": "uint256",
          "name": "tokenId",
          "type": "uint256"
        },
        {
          "internalType": "bytes",
          "name": "_data",
          "type": "bytes"
        }
      ],
      "name": "safeTransferFrom",
      "outputs": [],
      "stateMutability": "nonpayable",
      "type": "function"
    },
    {
      "inputs": [
        {
          "internalType": "address",
          "name": "operator",
          "type": "address"
        },
        {
          "internalType": "bool",
          "name": "approved",
          "type": "bool"
        }
      ],
      "name": "setApprovalForAll",
      "outputs": [],
      "stateMutability": "nonpayable",
      "type": "function"
    },
    {
      "inputs": [],
      "name": "symbol",
      "outputs": [
        {
          "internalType": "string",
          "name": "",
          "type": "string"
        }
      ],
      "stateMutability": "view",
      "type": "function",
      "constant": true
    },
    {
      "inputs": [
        {
          "internalType": "uint256",
          "name": "index",
          "type": "uint256"
        }
      ],
      "name": "tokenByIndex",
      "outputs": [
        {
          "internalType": "uint256",
          "name": "",
          "type": "uint256"
        }
      ],
      "stateMutability": "view",
      "type": "function",
      "constant": true
    },
    {
      "inputs": [
        {
          "internalType": "address",
          "name": "owner",
          "type": "address"
        },
        {
          "internalType": "uint256",
          "name": "index",
          "type": "uint256"
        }
      ],
      "name": "tokenOfOwnerByIndex",
      "outputs": [
        {
          "internalType": "uint256",
          "name": "",
          "type": "uint256"
        }
      ],
      "stateMutability": "view",
      "type": "function",
      "constant": true
    },
    {
      "inputs": [
        {
          "internalType": "uint256",
          "name": "",
          "type": "uint256"
        }
      ],
      "name": "tokenURIs",
      "outputs": [
        {
          "internalType": "string",
          "name": "",
          "type": "string"
        }
      ],
      "stateMutability": "view",
      "type": "function",
      "constant": true
    },
    {
      "inputs": [],
      "name": "totalSupply",
      "outputs": [
        {
          "internalType": "uint256",
          "name": "",
          "type": "uint256"
        }
      ],
      "stateMutability": "view",
      "type": "function",
      "constant": true
    },
    {
      "inputs": [
        {
          "internalType": "address",
          "name": "from",
          "type": "address"
        },
        {
          "internalType": "address",
          "name": "to",
          "type": "address"
        },
        {
          "internalType": "uint256",
          "name": "tokenId",
          "type": "uint256"
        }
      ],
      "name": "transferFrom",
      "outputs": [],
      "stateMutability": "nonpayable",
      "type": "function"
    },
    {
      "inputs": [
        {
          "internalType": "bytes4",
          "name": "interfaceId",
          "type": "bytes4"
        }
      ],
      "name": "supportsInterface",
      "outputs": [
        {
          "internalType": "bool",
          "name": "",
          "type": "bool"
        }
      ],
      "stateMutability": "view",
      "type": "function",
      "constant": true
    },
    {
      "inputs": [
        {
          "internalType": "uint256",
          "name": "tokenId",
          "type": "uint256"
        }
      ],
      "name": "tokenURI",
      "outputs": [
        {
          "internalType": "string",
          "name": "",
          "type": "string"
        }
      ],
      "stateMutability": "view",
      "type": "function",
      "constant": true
    },
    {
      "inputs": [
        {
          "internalType": "string",
          "name": "_tokenURI",
          "type": "string"
        }
      ],
      "name": "safeMint",
      "outputs": [],
      "stateMutability": "nonpayable",
      "type": "function"
    }
  ],
  "bytecode": "0x60806040523480156200001157600080fd5b506040518060400160405280600e81526020017f6d544320436f6c6c656374696f6e0000000000000000000000000000000000008152506040518060400160405280600381526020017f6d54430000000000000000000000000000000000000000000000000000000000815250816000908051906020019062000096929190620000b8565b508060019080519060200190620000af929190620000b8565b505050620001cd565b828054620000c69062000168565b90600052602060002090601f016020900481019282620000ea576000855562000136565b82601f106200010557805160ff191683800117855562000136565b8280016001018555821562000136579182015b828111156200013557825182559160200191906001019062000118565b5b50905062000145919062000149565b5090565b5b80821115620001645760008160009055506001016200014a565b5090565b600060028204905060018216806200018157607f821691505b602082108114156200019857620001976200019e565b5b50919050565b7f4e487b7100000000000000000000000000000000000000000000000000000000600052602260045260246000fd5b6130d380620001dd6000396000f3fe608060405234801561001057600080fd5b50600436106101165760003560e01c80636352211e116100a257806395d89b411161007157806395d89b4114610317578063a22cb46514610335578063b88d4fde14610351578063c87b56dd1461036d578063e985e9c51461039d57610116565b80636352211e1461026b578063695850fb1461029b5780636c8b703f146102b757806370a08231146102e757610116565b806318160ddd116100e957806318160ddd146101b557806323b872dd146101d35780632f745c59146101ef57806342842e0e1461021f5780634f6ccce71461023b57610116565b806301ffc9a71461011b57806306fdde031461014b578063081812fc14610169578063095ea7b314610199575b600080fd5b61013560048036038101906101309190612134565b6103cd565b60405161014291906125a5565b60405180910390f35b6101536103df565b60405161016091906125c0565b60405180910390f35b610183600480360381019061017e91906121d7565b610471565b604051610190919061253e565b60405180910390f35b6101b360048036038101906101ae91906120f4565b6104f6565b005b6101bd61060e565b6040516101ca9190612802565b60405180910390f35b6101ed60048036038101906101e89190611fde565b61061b565b005b610209600480360381019061020491906120f4565b61067b565b6040516102169190612802565b60405180910390f35b61023960048036038101906102349190611fde565b610720565b005b610255600480360381019061025091906121d7565b610740565b6040516102629190612802565b60405180910390f35b610285600480360381019061028091906121d7565b6107b1565b604051610292919061253e565b60405180910390f35b6102b560048036038101906102b0919061218e565b610863565b005b6102d160048036038101906102cc91906121d7565b610982565b6040516102de91906125c0565b60405180910390f35b61030160048036038101906102fc9190611f71565b610a2e565b60405161030e9190612802565b60405180910390f35b61031f610ae6565b60405161032c91906125c0565b60405180910390f35b61034f600480360381019061034a91906120b4565b610b78565b005b61036b60048036038101906103669190612031565b610cf9565b005b610387600480360381019061038291906121d7565b610d5b565b60405161039491906125c0565b60405180910390f35b6103b760048036038101906103b29190611f9e565b610e48565b6040516103c491906125a5565b60405180910390f35b60006103d882610edc565b9050919050565b6060600080546103ee90612a27565b80601f016020809104026020016040519081016040528092919081815260200182805461041a90612a27565b80156104675780601f1061043c57610100808354040283529160200191610467565b820191906000526020600020905b81548152906001019060200180831161044a57829003601f168201915b5050505050905090565b600061047c82610f56565b6104bb576040517f08c379a00000000000000000000000000000000000000000000000000000000081526004016104b290612742565b60405180910390fd5b6004600083815260200190815260200160002060009054906101000a900473ffffffffffffffffffffffffffffffffffffffff169050919050565b6000610501826107b1565b90508073ffffffffffffffffffffffffffffffffffffffff168373ffffffffffffffffffffffffffffffffffffffff161415610572576040517f08c379a0000000000000000000000000000000000000000000000000000000008152600401610569906127a2565b60405180910390fd5b8073ffffffffffffffffffffffffffffffffffffffff16610591610fc2565b73ffffffffffffffffffffffffffffffffffffffff1614806105c057506105bf816105ba610fc2565b610e48565b5b6105ff576040517f08c379a00000000000000000000000000000000000000000000000000000000081526004016105f6906126c2565b60405180910390fd5b6106098383610fca565b505050565b6000600880549050905090565b61062c610626610fc2565b82611083565b61066b576040517f08c379a0000000000000000000000000000000000000000000000000000000008152600401610662906127c2565b60405180910390fd5b610676838383611161565b505050565b600061068683610a2e565b82106106c7576040517f08c379a00000000000000000000000000000000000000000000000000000000081526004016106be906125e2565b60405180910390fd5b600660008473ffffffffffffffffffffffffffffffffffffffff1673ffffffffffffffffffffffffffffffffffffffff168152602001908152602001600020600083815260200190815260200160002054905092915050565b61073b83838360405180602001604052806000815250610cf9565b505050565b600061074a61060e565b821061078b576040517f08c379a0000000000000000000000000000000000000000000000000000000008152600401610782906127e2565b60405180910390fd5b6008828154811061079f5761079e612b17565b5b90600052602060002001549050919050565b6000806002600084815260200190815260200160002060009054906101000a900473ffffffffffffffffffffffffffffffffffffffff169050600073ffffffffffffffffffffffffffffffffffffffff168173ffffffffffffffffffffffffffffffffffffffff16141561085a576040517f08c379a000000000000000000000000000000000000000000000000000000000815260040161085190612702565b60405180910390fd5b80915050919050565b600b816040516108739190612527565b908152602001604051809103902060009054906101000a900460ff16156108cf576040517f08c379a00000000000000000000000000000000000000000000000000000000081526004016108c6906126a2565b60405180910390fd5b600a8190806001815401808255809150506001900390600052602060002001600090919091909150908051906020019061090a929190611d85565b506000600a80549050905081600c6000838152602001908152602001600020908051906020019061093c929190611d85565b5061094733826113bd565b6001600b836040516109599190612527565b908152602001604051809103902060006101000a81548160ff0219169083151502179055505050565b600a818154811061099257600080fd5b9060005260206000200160009150905080546109ad90612a27565b80601f01602080910402602001604051908101604052809291908181526020018280546109d990612a27565b8015610a265780601f106109fb57610100808354040283529160200191610a26565b820191906000526020600020905b815481529060010190602001808311610a0957829003601f168201915b505050505081565b60008073ffffffffffffffffffffffffffffffffffffffff168273ffffffffffffffffffffffffffffffffffffffff161415610a9f576040517f08c379a0000000000000000000000000000000000000000000000000000000008152600401610a96906126e2565b60405180910390fd5b600360008373ffffffffffffffffffffffffffffffffffffffff1673ffffffffffffffffffffffffffffffffffffffff168152602001908152602001600020549050919050565b606060018054610af590612a27565b80601f0160208091040260200160405190810160405280929190818152602001828054610b2190612a27565b8015610b6e5780601f10610b4357610100808354040283529160200191610b6e565b820191906000526020600020905b815481529060010190602001808311610b5157829003601f168201915b5050505050905090565b610b80610fc2565b73ffffffffffffffffffffffffffffffffffffffff168273ffffffffffffffffffffffffffffffffffffffff161415610bee576040517f08c379a0000000000000000000000000000000000000000000000000000000008152600401610be590612662565b60405180910390fd5b8060056000610bfb610fc2565b73ffffffffffffffffffffffffffffffffffffffff1673ffffffffffffffffffffffffffffffffffffffff16815260200190815260200160002060008473ffffffffffffffffffffffffffffffffffffffff1673ffffffffffffffffffffffffffffffffffffffff16815260200190815260200160002060006101000a81548160ff0219169083151502179055508173ffffffffffffffffffffffffffffffffffffffff16610ca8610fc2565b73ffffffffffffffffffffffffffffffffffffffff167f17307eab39ab6107e8899845ad3d59bd9653f200f220920489ca2b5937696c3183604051610ced91906125a5565b60405180910390a35050565b610d0a610d04610fc2565b83611083565b610d49576040517f08c379a0000000000000000000000000000000000000000000000000000000008152600401610d40906127c2565b60405180910390fd5b610d55848484846113db565b50505050565b6060610d6682610f56565b610da5576040517f08c379a0000000000000000000000000000000000000000000000000000000008152600401610d9c90612782565b60405180910390fd5b600c60008381526020019081526020016000208054610dc390612a27565b80601f0160208091040260200160405190810160405280929190818152602001828054610def90612a27565b8015610e3c5780601f10610e1157610100808354040283529160200191610e3c565b820191906000526020600020905b815481529060010190602001808311610e1f57829003601f168201915b50505050509050919050565b6000600560008473ffffffffffffffffffffffffffffffffffffffff1673ffffffffffffffffffffffffffffffffffffffff16815260200190815260200160002060008373ffffffffffffffffffffffffffffffffffffffff1673ffffffffffffffffffffffffffffffffffffffff16815260200190815260200160002060009054906101000a900460ff16905092915050565b60007f780e9d63000000000000000000000000000000000000000000000000000000007bffffffffffffffffffffffffffffffffffffffffffffffffffffffff1916827bffffffffffffffffffffffffffffffffffffffffffffffffffffffff19161480610f4f5750610f4e82611437565b5b9050919050565b60008073ffffffffffffffffffffffffffffffffffffffff166002600084815260200190815260200160002060009054906101000a900473ffffffffffffffffffffffffffffffffffffffff1673ffffffffffffffffffffffffffffffffffffffff1614159050919050565b600033905090565b816004600083815260200190815260200160002060006101000a81548173ffffffffffffffffffffffffffffffffffffffff021916908373ffffffffffffffffffffffffffffffffffffffff160217905550808273ffffffffffffffffffffffffffffffffffffffff1661103d836107b1565b73ffffffffffffffffffffffffffffffffffffffff167f8c5be1e5ebec7d5bd14f71427d1e84f3dd0314c0f7b2291e5b200ac8c7c3b92560405160405180910390a45050565b600061108e82610f56565b6110cd576040517f08c379a00000000000000000000000000000000000000000000000000000000081526004016110c490612682565b60405180910390fd5b60006110d8836107b1565b90508073ffffffffffffffffffffffffffffffffffffffff168473ffffffffffffffffffffffffffffffffffffffff16148061114757508373ffffffffffffffffffffffffffffffffffffffff1661112f84610471565b73ffffffffffffffffffffffffffffffffffffffff16145b8061115857506111578185610e48565b5b91505092915050565b8273ffffffffffffffffffffffffffffffffffffffff16611181826107b1565b73ffffffffffffffffffffffffffffffffffffffff16146111d7576040517f08c379a00000000000000000000000000000000000000000000000000000000081526004016111ce90612762565b60405180910390fd5b600073ffffffffffffffffffffffffffffffffffffffff168273ffffffffffffffffffffffffffffffffffffffff161415611247576040517f08c379a000000000000000000000000000000000000000000000000000000000815260040161123e90612642565b60405180910390fd5b611252838383611519565b61125d600082610fca565b6001600360008573ffffffffffffffffffffffffffffffffffffffff1673ffffffffffffffffffffffffffffffffffffffff16815260200190815260200160002060008282546112ad919061293d565b925050819055506001600360008473ffffffffffffffffffffffffffffffffffffffff1673ffffffffffffffffffffffffffffffffffffffff168152602001908152602001600020600082825461130491906128e7565b92505081905550816002600083815260200190815260200160002060006101000a81548173ffffffffffffffffffffffffffffffffffffffff021916908373ffffffffffffffffffffffffffffffffffffffff160217905550808273ffffffffffffffffffffffffffffffffffffffff168473ffffffffffffffffffffffffffffffffffffffff167fddf252ad1be2c89b69c2b068fc378daa952ba7f163c4a11628f55a4df523b3ef60405160405180910390a4505050565b6113d7828260405180602001604052806000815250611529565b5050565b6113e6848484611161565b6113f284848484611584565b611431576040517f08c379a000000000000000000000000000000000000000000000000000000000815260040161142890612602565b60405180910390fd5b50505050565b60007f80ac58cd000000000000000000000000000000000000000000000000000000007bffffffffffffffffffffffffffffffffffffffffffffffffffffffff1916827bffffffffffffffffffffffffffffffffffffffffffffffffffffffff1916148061150257507f5b5e139f000000000000000000000000000000000000000000000000000000007bffffffffffffffffffffffffffffffffffffffffffffffffffffffff1916827bffffffffffffffffffffffffffffffffffffffffffffffffffffffff1916145b8061151257506115118261171b565b5b9050919050565b611524838383611785565b505050565b6115338383611899565b6115406000848484611584565b61157f576040517f08c379a000000000000000000000000000000000000000000000000000000000815260040161157690612602565b60405180910390fd5b505050565b60006115a58473ffffffffffffffffffffffffffffffffffffffff16611a67565b1561170e578373ffffffffffffffffffffffffffffffffffffffff1663150b7a026115ce610fc2565b8786866040518563ffffffff1660e01b81526004016115f09493929190612559565b602060405180830381600087803b15801561160a57600080fd5b505af192505050801561163b57506040513d601f19601f820116820180604052508101906116389190612161565b60015b6116be573d806000811461166b576040519150601f19603f3d011682016040523d82523d6000602084013e611670565b606091505b506000815114156116b6576040517f08c379a00000000000000000000000000000000000000000000000000000000081526004016116ad90612602565b60405180910390fd5b805181602001fd5b63150b7a0260e01b7bffffffffffffffffffffffffffffffffffffffffffffffffffffffff1916817bffffffffffffffffffffffffffffffffffffffffffffffffffffffff191614915050611713565b600190505b949350505050565b60007f01ffc9a7000000000000000000000000000000000000000000000000000000007bffffffffffffffffffffffffffffffffffffffffffffffffffffffff1916827bffffffffffffffffffffffffffffffffffffffffffffffffffffffff1916149050919050565b611790838383611a7a565b600073ffffffffffffffffffffffffffffffffffffffff168373ffffffffffffffffffffffffffffffffffffffff1614156117d3576117ce81611a7f565b611812565b8173ffffffffffffffffffffffffffffffffffffffff168373ffffffffffffffffffffffffffffffffffffffff1614611811576118108382611ac8565b5b5b600073ffffffffffffffffffffffffffffffffffffffff168273ffffffffffffffffffffffffffffffffffffffff1614156118555761185081611c35565b611894565b8273ffffffffffffffffffffffffffffffffffffffff168273ffffffffffffffffffffffffffffffffffffffff1614611893576118928282611d06565b5b5b505050565b600073ffffffffffffffffffffffffffffffffffffffff168273ffffffffffffffffffffffffffffffffffffffff161415611909576040517f08c379a000000000000000000000000000000000000000000000000000000000815260040161190090612722565b60405180910390fd5b61191281610f56565b15611952576040517f08c379a000000000000000000000000000000000000000000000000000000000815260040161194990612622565b60405180910390fd5b61195e60008383611519565b6001600360008473ffffffffffffffffffffffffffffffffffffffff1673ffffffffffffffffffffffffffffffffffffffff16815260200190815260200160002060008282546119ae91906128e7565b92505081905550816002600083815260200190815260200160002060006101000a81548173ffffffffffffffffffffffffffffffffffffffff021916908373ffffffffffffffffffffffffffffffffffffffff160217905550808273ffffffffffffffffffffffffffffffffffffffff16600073ffffffffffffffffffffffffffffffffffffffff167fddf252ad1be2c89b69c2b068fc378daa952ba7f163c4a11628f55a4df523b3ef60405160405180910390a45050565b600080823b905060008111915050919050565b505050565b6008805490506009600083815260200190815260200160002081905550600881908060018154018082558091505060019003906000526020600020016000909190919091505550565b60006001611ad584610a2e565b611adf919061293d565b9050600060076000848152602001908152602001600020549050818114611bc4576000600660008673ffffffffffffffffffffffffffffffffffffffff1673ffffffffffffffffffffffffffffffffffffffff168152602001908152602001600020600084815260200190815260200160002054905080600660008773ffffffffffffffffffffffffffffffffffffffff1673ffffffffffffffffffffffffffffffffffffffff168152602001908152602001600020600084815260200190815260200160002081905550816007600083815260200190815260200160002081905550505b6007600084815260200190815260200160002060009055600660008573ffffffffffffffffffffffffffffffffffffffff1673ffffffffffffffffffffffffffffffffffffffff16815260200190815260200160002060008381526020019081526020016000206000905550505050565b60006001600880549050611c49919061293d565b9050600060096000848152602001908152602001600020549050600060088381548110611c7957611c78612b17565b5b906000526020600020015490508060088381548110611c9b57611c9a612b17565b5b906000526020600020018190555081600960008381526020019081526020016000208190555060096000858152602001908152602001600020600090556008805480611cea57611ce9612ae8565b5b6001900381819060005260206000200160009055905550505050565b6000611d1183610a2e565b905081600660008573ffffffffffffffffffffffffffffffffffffffff1673ffffffffffffffffffffffffffffffffffffffff168152602001908152602001600020600083815260200190815260200160002081905550806007600084815260200190815260200160002081905550505050565b828054611d9190612a27565b90600052602060002090601f016020900481019282611db35760008555611dfa565b82601f10611dcc57805160ff1916838001178555611dfa565b82800160010185558215611dfa579182015b82811115611df9578251825591602001919060010190611dde565b5b509050611e079190611e0b565b5090565b5b80821115611e24576000816000905550600101611e0c565b5090565b6000611e3b611e3684612842565b61281d565b905082815260208101848484011115611e5757611e56612b7a565b5b611e628482856129e5565b509392505050565b6000611e7d611e7884612873565b61281d565b905082815260208101848484011115611e9957611e98612b7a565b5b611ea48482856129e5565b509392505050565b600081359050611ebb81613041565b92915050565b600081359050611ed081613058565b92915050565b600081359050611ee58161306f565b92915050565b600081519050611efa8161306f565b92915050565b600082601f830112611f1557611f14612b75565b5b8135611f25848260208601611e28565b91505092915050565b600082601f830112611f4357611f42612b75565b5b8135611f53848260208601611e6a565b91505092915050565b600081359050611f6b81613086565b92915050565b600060208284031215611f8757611f86612b84565b5b6000611f9584828501611eac565b91505092915050565b60008060408385031215611fb557611fb4612b84565b5b6000611fc385828601611eac565b9250506020611fd485828601611eac565b9150509250929050565b600080600060608486031215611ff757611ff6612b84565b5b600061200586828701611eac565b935050602061201686828701611eac565b925050604061202786828701611f5c565b9150509250925092565b6000806000806080858703121561204b5761204a612b84565b5b600061205987828801611eac565b945050602061206a87828801611eac565b935050604061207b87828801611f5c565b925050606085013567ffffffffffffffff81111561209c5761209b612b7f565b5b6120a887828801611f00565b91505092959194509250565b600080604083850312156120cb576120ca612b84565b5b60006120d985828601611eac565b92505060206120ea85828601611ec1565b9150509250929050565b6000806040838503121561210b5761210a612b84565b5b600061211985828601611eac565b925050602061212a85828601611f5c565b9150509250929050565b60006020828403121561214a57612149612b84565b5b600061215884828501611ed6565b91505092915050565b60006020828403121561217757612176612b84565b5b600061218584828501611eeb565b91505092915050565b6000602082840312156121a4576121a3612b84565b5b600082013567ffffffffffffffff8111156121c2576121c1612b7f565b5b6121ce84828501611f2e565b91505092915050565b6000602082840312156121ed576121ec612b84565b5b60006121fb84828501611f5c565b91505092915050565b61220d81612971565b82525050565b61221c81612983565b82525050565b600061222d826128a4565b61223781856128ba565b93506122478185602086016129f4565b61225081612b89565b840191505092915050565b6000612266826128af565b61227081856128cb565b93506122808185602086016129f4565b61228981612b89565b840191505092915050565b600061229f826128af565b6122a981856128dc565b93506122b98185602086016129f4565b80840191505092915050565b60006122d2602b836128cb565b91506122dd82612b9a565b604082019050919050565b60006122f56032836128cb565b915061230082612be9565b604082019050919050565b6000612318601c836128cb565b915061232382612c38565b602082019050919050565b600061233b6024836128cb565b915061234682612c61565b604082019050919050565b600061235e6019836128cb565b915061236982612cb0565b602082019050919050565b6000612381602c836128cb565b915061238c82612cd9565b604082019050919050565b60006123a4601e836128cb565b91506123af82612d28565b602082019050919050565b60006123c76038836128cb565b91506123d282612d51565b604082019050919050565b60006123ea602a836128cb565b91506123f582612da0565b604082019050919050565b600061240d6029836128cb565b915061241882612def565b604082019050919050565b60006124306020836128cb565b915061243b82612e3e565b602082019050919050565b6000612453602c836128cb565b915061245e82612e67565b604082019050919050565b60006124766029836128cb565b915061248182612eb6565b604082019050919050565b6000612499602f836128cb565b91506124a482612f05565b604082019050919050565b60006124bc6021836128cb565b91506124c782612f54565b604082019050919050565b60006124df6031836128cb565b91506124ea82612fa3565b604082019050919050565b6000612502602c836128cb565b915061250d82612ff2565b604082019050919050565b612521816129db565b82525050565b60006125338284612294565b915081905092915050565b60006020820190506125536000830184612204565b92915050565b600060808201905061256e6000830187612204565b61257b6020830186612204565b6125886040830185612518565b818103606083015261259a8184612222565b905095945050505050565b60006020820190506125ba6000830184612213565b92915050565b600060208201905081810360008301526125da818461225b565b905092915050565b600060208201905081810360008301526125fb816122c5565b9050919050565b6000602082019050818103600083015261261b816122e8565b9050919050565b6000602082019050818103600083015261263b8161230b565b9050919050565b6000602082019050818103600083015261265b8161232e565b9050919050565b6000602082019050818103600083015261267b81612351565b9050919050565b6000602082019050818103600083015261269b81612374565b9050919050565b600060208201905081810360008301526126bb81612397565b9050919050565b600060208201905081810360008301526126db816123ba565b9050919050565b600060208201905081810360008301526126fb816123dd565b9050919050565b6000602082019050818103600083015261271b81612400565b9050919050565b6000602082019050818103600083015261273b81612423565b9050919050565b6000602082019050818103600083015261275b81612446565b9050919050565b6000602082019050818103600083015261277b81612469565b9050919050565b6000602082019050818103600083015261279b8161248c565b9050919050565b600060208201905081810360008301526127bb816124af565b9050919050565b600060208201905081810360008301526127db816124d2565b9050919050565b600060208201905081810360008301526127fb816124f5565b9050919050565b60006020820190506128176000830184612518565b92915050565b6000612827612838565b90506128338282612a59565b919050565b6000604051905090565b600067ffffffffffffffff82111561285d5761285c612b46565b5b61286682612b89565b9050602081019050919050565b600067ffffffffffffffff82111561288e5761288d612b46565b5b61289782612b89565b9050602081019050919050565b600081519050919050565b600081519050919050565b600082825260208201905092915050565b600082825260208201905092915050565b600081905092915050565b60006128f2826129db565b91506128fd836129db565b9250827fffffffffffffffffffffffffffffffffffffffffffffffffffffffffffffffff0382111561293257612931612a8a565b5b828201905092915050565b6000612948826129db565b9150612953836129db565b92508282101561296657612965612a8a565b5b828203905092915050565b600061297c826129bb565b9050919050565b60008115159050919050565b60007fffffffff0000000000000000000000000000000000000000000000000000000082169050919050565b600073ffffffffffffffffffffffffffffffffffffffff82169050919050565b6000819050919050565b82818337600083830152505050565b60005b83811015612a125780820151818401526020810190506129f7565b83811115612a21576000848401525b50505050565b60006002820490506001821680612a3f57607f821691505b60208210811415612a5357612a52612ab9565b5b50919050565b612a6282612b89565b810181811067ffffffffffffffff82111715612a8157612a80612b46565b5b80604052505050565b7f4e487b7100000000000000000000000000000000000000000000000000000000600052601160045260246000fd5b7f4e487b7100000000000000000000000000000000000000000000000000000000600052602260045260246000fd5b7f4e487b7100000000000000000000000000000000000000000000000000000000600052603160045260246000fd5b7f4e487b7100000000000000000000000000000000000000000000000000000000600052603260045260246000fd5b7f4e487b7100000000000000000000000000000000000000000000000000000000600052604160045260246000fd5b600080fd5b600080fd5b600080fd5b600080fd5b6000601f19601f8301169050919050565b7f455243373231456e756d657261626c653a206f776e657220696e646578206f7560008201527f74206f6620626f756e6473000000000000000000000000000000000000000000602082015250565b7f4552433732313a207472616e7366657220746f206e6f6e20455243373231526560008201527f63656976657220696d706c656d656e7465720000000000000000000000000000602082015250565b7f4552433732313a20746f6b656e20616c7265616479206d696e74656400000000600082015250565b7f4552433732313a207472616e7366657220746f20746865207a65726f2061646460008201527f7265737300000000000000000000000000000000000000000000000000000000602082015250565b7f4552433732313a20617070726f766520746f2063616c6c657200000000000000600082015250565b7f4552433732313a206f70657261746f7220717565727920666f72206e6f6e657860008201527f697374656e7420746f6b656e0000000000000000000000000000000000000000602082015250565b7f54686520746f6b656e205552492073686f756c6420626520756e697175650000600082015250565b7f4552433732313a20617070726f76652063616c6c6572206973206e6f74206f7760008201527f6e6572206e6f7220617070726f76656420666f7220616c6c0000000000000000602082015250565b7f4552433732313a2062616c616e636520717565727920666f7220746865207a6560008201527f726f206164647265737300000000000000000000000000000000000000000000602082015250565b7f4552433732313a206f776e657220717565727920666f72206e6f6e657869737460008201527f656e7420746f6b656e0000000000000000000000000000000000000000000000602082015250565b7f4552433732313a206d696e7420746f20746865207a65726f2061646472657373600082015250565b7f4552433732313a20617070726f76656420717565727920666f72206e6f6e657860008201527f697374656e7420746f6b656e0000000000000000000000000000000000000000602082015250565b7f4552433732313a207472616e73666572206f6620746f6b656e2074686174206960008201527f73206e6f74206f776e0000000000000000000000000000000000000000000000602082015250565b7f4552433732314d657461646174613a2055524920717565727920666f72206e6f60008201527f6e6578697374656e7420746f6b656e0000000000000000000000000000000000602082015250565b7f4552433732313a20617070726f76616c20746f2063757272656e74206f776e6560008201527f7200000000000000000000000000000000000000000000000000000000000000602082015250565b7f4552433732313a207472616e736665722063616c6c6572206973206e6f74206f60008201527f776e6572206e6f7220617070726f766564000000000000000000000000000000602082015250565b7f455243373231456e756d657261626c653a20676c6f62616c20696e646578206f60008201527f7574206f6620626f756e64730000000000000000000000000000000000000000602082015250565b61304a81612971565b811461305557600080fd5b50565b61306181612983565b811461306c57600080fd5b50565b6130788161298f565b811461308357600080fd5b50565b61308f816129db565b811461309a57600080fd5b5056fea264697066735822122028e29199e59741c1010f33511e2cf892d1e497541f0977966f8c8448af8959e764736f6c63430008060033",
  "immutableReferences": {},
  "source": "// SPDX-License-Identifier: MIT\r\npragma solidity ^0.8.0;\r\n\r\nimport \"@openzeppelin/contracts/token/ERC721/ERC721.sol\";\r\nimport \"@openzeppelin/contracts/token/ERC721/extensions/ERC721Enumerable.sol\";\r\n\r\ncontract NFTCollection is ERC721, ERC721Enumerable {\r\n  string[] public tokenURIs;\r\n  mapping(string => bool) _tokenURIExists;\r\n  mapping(uint => string) _tokenIdToTokenURI;\r\n\r\n  constructor() \r\n    ERC721(\"mTC Collection\", \"mTC\") \r\n  {\r\n  }\r\n\r\n  function _beforeTokenTransfer(address from, address to, uint256 tokenId) internal override(ERC721, ERC721Enumerable) {\r\n    super._beforeTokenTransfer(from, to, tokenId);\r\n  }\r\n\r\n  function supportsInterface(bytes4 interfaceId) public view override(ERC721, ERC721Enumerable) returns (bool) {\r\n    return super.supportsInterface(interfaceId);\r\n  }\r\n\r\n  function tokenURI(uint256 tokenId) public override view returns (string memory) {\r\n    require(_exists(tokenId), 'ERC721Metadata: URI query for nonexistent token');\r\n    return _tokenIdToTokenURI[tokenId];\r\n  }\r\n\r\n  function safeMint(string memory _tokenURI) public {\r\n    require(!_tokenURIExists[_tokenURI], 'The token URI should be unique');\r\n    tokenURIs.push(_tokenURI);    \r\n    uint _id = tokenURIs.length;\r\n    _tokenIdToTokenURI[_id] = _tokenURI;\r\n    _safeMint(msg.sender, _id);\r\n    _tokenURIExists[_tokenURI] = true;\r\n  }\r\n}",
  "sourcePath": "/mnt/c/Users/Lenovo/Desktop/Blockchain Developer/DApps/nft-gallery/src/contracts/NFTCollection.sol",
  "compiler": {
    "name": "solc",
    "version": "0.8.6+commit.11564f7e.Emscripten.clang"
  },
  "schemaVersion": "3.4.1",
  "updatedAt": "2021-08-10T11:48:01.534Z",
  "networkType": "ethereum",
  "devdoc": {
    "kind": "dev",
    "methods": {
      "approve(address,uint256)": {
        "details": "See {IERC721-approve}."
      },
      "balanceOf(address)": {
        "details": "See {IERC721-balanceOf}."
      },
      "getApproved(uint256)": {
        "details": "See {IERC721-getApproved}."
      },
      "isApprovedForAll(address,address)": {
        "details": "See {IERC721-isApprovedForAll}."
      },
      "name()": {
        "details": "See {IERC721Metadata-name}."
      },
      "ownerOf(uint256)": {
        "details": "See {IERC721-ownerOf}."
      },
      "safeTransferFrom(address,address,uint256)": {
        "details": "See {IERC721-safeTransferFrom}."
      },
      "safeTransferFrom(address,address,uint256,bytes)": {
        "details": "See {IERC721-safeTransferFrom}."
      },
      "setApprovalForAll(address,bool)": {
        "details": "See {IERC721-setApprovalForAll}."
      },
      "symbol()": {
        "details": "See {IERC721Metadata-symbol}."
      },
      "tokenByIndex(uint256)": {
        "details": "See {IERC721Enumerable-tokenByIndex}."
      },
      "tokenOfOwnerByIndex(address,uint256)": {
        "details": "See {IERC721Enumerable-tokenOfOwnerByIndex}."
      },
      "tokenURI(uint256)": {
        "details": "See {IERC721Metadata-tokenURI}."
      },
      "totalSupply()": {
        "details": "See {IERC721Enumerable-totalSupply}."
      },
      "transferFrom(address,address,uint256)": {
        "details": "See {IERC721-transferFrom}."
      }
    },
    "version": 1
  },
  "userdoc": {
    "kind": "user",
    "methods": {},
    "version": 1
  }
}