{
  "contractName": "NFTMarketplace",
  "abi": [
    {
      "inputs": [
        {
          "internalType": "address",
          "name": "_nftCollection",
          "type": "address"
        }
      ],
      "stateMutability": "nonpayable",
      "type": "constructor"
    },
    {
      "anonymous": false,
      "inputs": [
        {
          "indexed": false,
          "internalType": "address",
          "name": "user",
          "type": "address"
        },
        {
          "indexed": false,
          "internalType": "uint256",
          "name": "amount",
          "type": "uint256"
        }
      ],
      "name": "ClaimFunds",
      "type": "event"
    },
    {
      "anonymous": false,
      "inputs": [
        {
          "indexed": false,
          "internalType": "uint256",
          "name": "offerId",
          "type": "uint256"
        },
        {
          "indexed": false,
          "internalType": "uint256",
          "name": "id",
          "type": "uint256"
        },
        {
          "indexed": false,
          "internalType": "address",
          "name": "user",
          "type": "address"
        },
        {
          "indexed": false,
          "internalType": "uint256",
          "name": "price",
          "type": "uint256"
        },
        {
          "indexed": false,
          "internalType": "bool",
          "name": "fulfilled",
          "type": "bool"
        },
        {
          "indexed": false,
          "internalType": "bool",
          "name": "cancelled",
          "type": "bool"
        }
      ],
      "name": "Offer",
      "type": "event"
    },
    {
      "anonymous": false,
      "inputs": [
        {
          "indexed": false,
          "internalType": "uint256",
          "name": "offerId",
          "type": "uint256"
        }
      ],
      "name": "OfferCancelled",
      "type": "event"
    },
    {
      "anonymous": false,
      "inputs": [
        {
          "indexed": false,
          "internalType": "uint256",
          "name": "offerId",
          "type": "uint256"
        }
      ],
      "name": "OfferFilled",
      "type": "event"
    },
    {
      "stateMutability": "nonpayable",
      "type": "fallback"
    },
    {
      "inputs": [],
      "name": "offerCount",
      "outputs": [
        {
          "internalType": "uint256",
          "name": "",
          "type": "uint256"
        }
      ],
      "stateMutability": "view",
      "type": "function",
      "constant": true
    },
    {
      "inputs": [
        {
          "internalType": "uint256",
          "name": "",
          "type": "uint256"
        }
      ],
      "name": "offers",
      "outputs": [
        {
          "internalType": "uint256",
          "name": "offerId",
          "type": "uint256"
        },
        {
          "internalType": "uint256",
          "name": "id",
          "type": "uint256"
        },
        {
          "internalType": "address",
          "name": "user",
          "type": "address"
        },
        {
          "internalType": "uint256",
          "name": "price",
          "type": "uint256"
        },
        {
          "internalType": "bool",
          "name": "fulfilled",
          "type": "bool"
        },
        {
          "internalType": "bool",
          "name": "cancelled",
          "type": "bool"
        }
      ],
      "stateMutability": "view",
      "type": "function",
      "constant": true
    },
    {
      "inputs": [
        {
          "internalType": "address",
          "name": "",
          "type": "address"
        }
      ],
      "name": "userFunds",
      "outputs": [
        {
          "internalType": "uint256",
          "name": "",
          "type": "uint256"
        }
      ],
      "stateMutability": "view",
      "type": "function",
      "constant": true
    },
    {
      "inputs": [
        {
          "internalType": "uint256",
          "name": "_id",
          "type": "uint256"
        },
        {
          "internalType": "uint256",
          "name": "_price",
          "type": "uint256"
        }
      ],
      "name": "makeOffer",
      "outputs": [],
      "stateMutability": "nonpayable",
      "type": "function"
    },
    {
      "inputs": [
        {
          "internalType": "uint256",
          "name": "_offerId",
          "type": "uint256"
        }
      ],
      "name": "fillOffer",
      "outputs": [],
      "stateMutability": "payable",
      "type": "function",
      "payable": true
    },
    {
      "inputs": [
        {
          "internalType": "uint256",
          "name": "_offerId",
          "type": "uint256"
        }
      ],
      "name": "cancelOffer",
      "outputs": [],
      "stateMutability": "nonpayable",
      "type": "function"
    },
    {
      "inputs": [],
      "name": "claimFunds",
      "outputs": [],
      "stateMutability": "nonpayable",
      "type": "function"
    }
  ],
  "bytecode": "0x60806040523480156200001157600080fd5b50604051620014c4380380620014c4833981810160405281019062000037919062000096565b80600360006101000a81548173ffffffffffffffffffffffffffffffffffffffff021916908373ffffffffffffffffffffffffffffffffffffffff160217905550506200011b565b600081519050620000908162000101565b92915050565b600060208284031215620000af57620000ae620000fc565b5b6000620000bf848285016200007f565b91505092915050565b6000620000d582620000dc565b9050919050565b600073ffffffffffffffffffffffffffffffffffffffff82169050919050565b600080fd5b6200010c81620000c8565b81146200011857600080fd5b50565b611399806200012b6000396000f3fe6080604052600436106100745760003560e01c806385dba8611161004e57806385dba861146101185780638a72ea6a14610134578063ac30777314610176578063ef706adf1461018d57610075565b806305b7cdd3146100875780631115c24d146100b05780638387c6e1146100db57610075565b5b34801561008157600080fd5b50600080fd5b34801561009357600080fd5b506100ae60048036038101906100a99190610bc4565b6101b6565b005b3480156100bc57600080fd5b506100c56103ad565b6040516100d29190610eec565b60405180910390f35b3480156100e757600080fd5b5061010260048036038101906100fd9190610b6a565b6103b3565b60405161010f9190610eec565b60405180910390f35b610132600480360381019061012d9190610b97565b6103cb565b005b34801561014057600080fd5b5061015b60048036038101906101569190610b97565b61070c565b60405161016d96959493929190610f07565b60405180910390f35b34801561018257600080fd5b5061018b610782565b005b34801561019957600080fd5b506101b460048036038101906101af9190610b97565b610949565b005b600360009054906101000a900473ffffffffffffffffffffffffffffffffffffffff1673ffffffffffffffffffffffffffffffffffffffff166323b872dd3330856040518463ffffffff1660e01b815260040161021593929190610d6c565b600060405180830381600087803b15801561022f57600080fd5b505af1158015610243573d6000803e3d6000fd5b5050505060008081548092919061025990611017565b91905055506040518060c0016040528060005481526020018381526020013373ffffffffffffffffffffffffffffffffffffffff168152602001828152602001600015158152602001600015158152506001600080548152602001908152602001600020600082015181600001556020820151816001015560408201518160020160006101000a81548173ffffffffffffffffffffffffffffffffffffffff021916908373ffffffffffffffffffffffffffffffffffffffff1602179055506060820151816003015560808201518160040160006101000a81548160ff02191690831515021790555060a08201518160040160016101000a81548160ff0219169083151502179055509050507f93e711896d4ef527d199d7e101922e20f918cbb248a0fb0977c52fda24aa1f1d6000548333846000806040516103a196959493929190610f07565b60405180910390a15050565b60005481565b60026020528060005260406000206000915090505481565b600060016000838152602001908152602001600020905081816000015414610428576040517f08c379a000000000000000000000000000000000000000000000000000000000815260040161041f90610eac565b60405180910390fd5b3373ffffffffffffffffffffffffffffffffffffffff168160020160009054906101000a900473ffffffffffffffffffffffffffffffffffffffff1673ffffffffffffffffffffffffffffffffffffffff1614156104bb576040517f08c379a00000000000000000000000000000000000000000000000000000000081526004016104b290610dcc565b60405180910390fd5b8060040160009054906101000a900460ff161561050d576040517f08c379a000000000000000000000000000000000000000000000000000000000815260040161050490610e4c565b60405180910390fd5b8060040160019054906101000a900460ff161561055f576040517f08c379a000000000000000000000000000000000000000000000000000000000815260040161055690610dec565b60405180910390fd5b806003015434146105a5576040517f08c379a000000000000000000000000000000000000000000000000000000000815260040161059c90610e6c565b60405180910390fd5b600360009054906101000a900473ffffffffffffffffffffffffffffffffffffffff1673ffffffffffffffffffffffffffffffffffffffff166323b872dd303384600101546040518463ffffffff1660e01b815260040161060893929190610d6c565b600060405180830381600087803b15801561062257600080fd5b505af1158015610636573d6000803e3d6000fd5b5050505060018160040160006101000a81548160ff02191690831515021790555034600260008360020160009054906101000a900473ffffffffffffffffffffffffffffffffffffffff1673ffffffffffffffffffffffffffffffffffffffff1673ffffffffffffffffffffffffffffffffffffffff16815260200190815260200160002060008282546106ca9190610f79565b925050819055507f1cbca78589bbc7eff0ee1cf1e0de1e3e0ab847c1bee6a5eb22af1fac2903a6a4826040516107009190610eec565b60405180910390a15050565b60016020528060005260406000206000915090508060000154908060010154908060020160009054906101000a900473ffffffffffffffffffffffffffffffffffffffff16908060030154908060040160009054906101000a900460ff16908060040160019054906101000a900460ff16905086565b6000600260003373ffffffffffffffffffffffffffffffffffffffff1673ffffffffffffffffffffffffffffffffffffffff1681526020019081526020016000205411610804576040517f08c379a00000000000000000000000000000000000000000000000000000000081526004016107fb90610e2c565b60405180910390fd5b3373ffffffffffffffffffffffffffffffffffffffff166108fc600260003373ffffffffffffffffffffffffffffffffffffffff1673ffffffffffffffffffffffffffffffffffffffff168152602001908152602001600020549081150290604051600060405180830381858888f19350505050158015610889573d6000803e3d6000fd5b507f4f0554190111f93f8c2ccef2cc41473f187d7f29ff5a5c308ca41f9dfe4e989a33600260003373ffffffffffffffffffffffffffffffffffffffff1673ffffffffffffffffffffffffffffffffffffffff168152602001908152602001600020546040516108fa929190610da3565b60405180910390a16000600260003373ffffffffffffffffffffffffffffffffffffffff1673ffffffffffffffffffffffffffffffffffffffff16815260200190815260200160002081905550565b6000600160008381526020019081526020016000209050818160000154146109a6576040517f08c379a000000000000000000000000000000000000000000000000000000000815260040161099d90610eac565b60405180910390fd5b3373ffffffffffffffffffffffffffffffffffffffff168160020160009054906101000a900473ffffffffffffffffffffffffffffffffffffffff1673ffffffffffffffffffffffffffffffffffffffff1614610a38576040517f08c379a0000000000000000000000000000000000000000000000000000000008152600401610a2f90610ecc565b60405180910390fd5b600015158160040160009054906101000a900460ff16151514610a90576040517f08c379a0000000000000000000000000000000000000000000000000000000008152600401610a8790610e0c565b60405180910390fd5b600015158160040160019054906101000a900460ff16151514610ae8576040517f08c379a0000000000000000000000000000000000000000000000000000000008152600401610adf90610e8c565b60405180910390fd5b60018160040160016101000a81548160ff0219169083151502179055507fc28b4aed030bfacc245c0501326e1beb8c0ef0d60e4edc21067fdeb52da2a7aa82604051610b349190610eec565b60405180910390a15050565b600081359050610b4f81611335565b92915050565b600081359050610b648161134c565b92915050565b600060208284031215610b8057610b7f61108f565b5b6000610b8e84828501610b40565b91505092915050565b600060208284031215610bad57610bac61108f565b5b6000610bbb84828501610b55565b91505092915050565b60008060408385031215610bdb57610bda61108f565b5b6000610be985828601610b55565b9250506020610bfa85828601610b55565b9150509250929050565b610c0d81610fcf565b82525050565b610c1c81610fe1565b82525050565b6000610c2f602583610f68565b9150610c3a82611094565b604082019050919050565b6000610c52602583610f68565b9150610c5d826110e3565b604082019050919050565b6000610c75602583610f68565b9150610c8082611132565b604082019050919050565b6000610c98602483610f68565b9150610ca382611181565b604082019050919050565b6000610cbb602283610f68565b9150610cc6826111d0565b604082019050919050565b6000610cde602e83610f68565b9150610ce98261121f565b604082019050919050565b6000610d01602283610f68565b9150610d0c8261126e565b604082019050919050565b6000610d24601483610f68565b9150610d2f826112bd565b602082019050919050565b6000610d47602b83610f68565b9150610d52826112e6565b604082019050919050565b610d668161100d565b82525050565b6000606082019050610d816000830186610c04565b610d8e6020830185610c04565b610d9b6040830184610d5d565b949350505050565b6000604082019050610db86000830185610c04565b610dc56020830184610d5d565b9392505050565b60006020820190508181036000830152610de581610c22565b9050919050565b60006020820190508181036000830152610e0581610c45565b9050919050565b60006020820190508181036000830152610e2581610c68565b9050919050565b60006020820190508181036000830152610e4581610c8b565b9050919050565b60006020820190508181036000830152610e6581610cae565b9050919050565b60006020820190508181036000830152610e8581610cd1565b9050919050565b60006020820190508181036000830152610ea581610cf4565b9050919050565b60006020820190508181036000830152610ec581610d17565b9050919050565b60006020820190508181036000830152610ee581610d3a565b9050919050565b6000602082019050610f016000830184610d5d565b92915050565b600060c082019050610f1c6000830189610d5d565b610f296020830188610d5d565b610f366040830187610c04565b610f436060830186610d5d565b610f506080830185610c13565b610f5d60a0830184610c13565b979650505050505050565b600082825260208201905092915050565b6000610f848261100d565b9150610f8f8361100d565b9250827fffffffffffffffffffffffffffffffffffffffffffffffffffffffffffffffff03821115610fc457610fc3611060565b5b828201905092915050565b6000610fda82610fed565b9050919050565b60008115159050919050565b600073ffffffffffffffffffffffffffffffffffffffff82169050919050565b6000819050919050565b60006110228261100d565b91507fffffffffffffffffffffffffffffffffffffffffffffffffffffffffffffffff82141561105557611054611060565b5b600182019050919050565b7f4e487b7100000000000000000000000000000000000000000000000000000000600052601160045260246000fd5b600080fd5b7f546865206f776e6572206f6620746865206f666665722063616e6e6f7420666960008201527f6c6c206974000000000000000000000000000000000000000000000000000000602082015250565b7f412063616e63656c6c6564206f666665722063616e6e6f742062652066756c6660008201527f696c6c6564000000000000000000000000000000000000000000000000000000602082015250565b7f412066756c66696c6c6564206f666665722063616e6e6f742062652063616e6360008201527f656c6c6564000000000000000000000000000000000000000000000000000000602082015250565b7f54686973207573657220686173206e6f2066756e647320746f20626520636c6160008201527f696d656400000000000000000000000000000000000000000000000000000000602082015250565b7f416e206f666665722063616e6e6f742062652066756c66696c6c65642074776960008201527f6365000000000000000000000000000000000000000000000000000000000000602082015250565b7f5468652045544820616d6f756e742073686f756c64206d61746368207769746860008201527f20746865204e4654205072696365000000000000000000000000000000000000602082015250565b7f416e206f666665722063616e6e6f742062652063616e63656c6c65642074776960008201527f6365000000000000000000000000000000000000000000000000000000000000602082015250565b7f546865206f66666572206d757374206578697374000000000000000000000000600082015250565b7f546865206f666665722063616e206f6e6c792062652063616e63656c6564206260008201527f7920746865206f776e6572000000000000000000000000000000000000000000602082015250565b61133e81610fcf565b811461134957600080fd5b50565b6113558161100d565b811461136057600080fd5b5056fea2646970667358221220b2b9f2f5c9518e707b11295c61d007ae80acb22a4a500eb78a7b89e3a069e21464736f6c63430008060033",
  "immutableReferences": {},
  "source": "// SPDX-License-Identifier: MIT\r\npragma solidity ^0.8.0;\r\n\r\nimport \"./NFTCollection.sol\";\r\n\r\ncontract NFTMarketplace {\r\n  uint public offerCount;\r\n  mapping (uint => _Offer) public offers;\r\n  mapping (address => uint) public userFunds;\r\n  NFTCollection nftCollection;\r\n  \r\n  struct _Offer {\r\n    uint offerId;\r\n    uint id;\r\n    address user;\r\n    uint price;\r\n    bool fulfilled;\r\n    bool cancelled;\r\n  }\r\n\r\n  event Offer(\r\n    uint offerId,\r\n    uint id,\r\n    address user,\r\n    uint price,\r\n    bool fulfilled,\r\n    bool cancelled\r\n  );\r\n\r\n  event OfferFilled(uint offerId);\r\n  event OfferCancelled(uint offerId);\r\n  //event OfferModified(uint offerId, uint price);\r\n  event ClaimFunds(address user, uint amount);\r\n\r\n  constructor(address _nftCollection) {\r\n    nftCollection = NFTCollection(_nftCollection);\r\n  }\r\n  \r\n  function makeOffer(uint _id, uint _price) public {\r\n    nftCollection.transferFrom(msg.sender, address(this), _id);\r\n    offerCount ++;\r\n    offers[offerCount] = _Offer(offerCount, _id, msg.sender, _price, false, false);\r\n    emit Offer(offerCount, _id, msg.sender, _price, false, false);\r\n  }\r\n\r\n  function fillOffer(uint _offerId) public payable {\r\n    _Offer storage _offer = offers[_offerId];\r\n    require(_offer.offerId == _offerId, 'The offer must exist');\r\n    require(_offer.user != msg.sender, 'The owner of the offer cannot fill it');\r\n    require(!_offer.fulfilled, 'An offer cannot be fulfilled twice');\r\n    require(!_offer.cancelled, 'A cancelled offer cannot be fulfilled');\r\n    require(msg.value == _offer.price, 'The ETH amount should match with the NFT Price');\r\n    nftCollection.transferFrom(address(this), msg.sender, _offer.id);\r\n    _offer.fulfilled = true;\r\n    userFunds[_offer.user] += msg.value;\r\n    emit OfferFilled(_offerId);\r\n  }\r\n\r\n  function cancelOffer(uint _offerId) public {\r\n    _Offer storage _offer = offers[_offerId];\r\n    require(_offer.offerId == _offerId, 'The offer must exist');\r\n    require(_offer.user == msg.sender, 'The offer can only be canceled by the owner');\r\n    require(_offer.fulfilled == false, 'A fulfilled offer cannot be cancelled');\r\n    require(_offer.cancelled == false, 'An offer cannot be cancelled twice');\r\n    _offer.cancelled = true;\r\n    emit OfferCancelled(_offerId);\r\n  }\r\n\r\n  // function changePrice(uint _offerId, uint _newPrice) public {\r\n  //   _Offer storage _offer = offers[_offerId];\r\n  //   require(_offer.offerId == _offerId); // the offer must exist\r\n  //   require(_offer.user == msg.sender, 'Only the owner can modify its offer');\r\n  //   require(_offer.fulfilled == false, 'Only non-fulfilled orders can be modified');\r\n  //   require(_offer.cancelled == false, 'Only non-cancelled orders can be modified');\r\n  //   _offer.price = _newPrice;\r\n  //   emit OfferModified(_offerId, _newPrice);\r\n  // }\r\n\r\n  function claimFunds() public {\r\n    require(userFunds[msg.sender] > 0, 'This user has no funds to be claimed');\r\n    payable(msg.sender).transfer(userFunds[msg.sender]);\r\n    emit ClaimFunds(msg.sender, userFunds[msg.sender]);\r\n    userFunds[msg.sender] = 0;    \r\n  }\r\n\r\n  // Fallback: reverts if Ether is sent to this smart contract by mistake\r\n  fallback () external {\r\n    revert();\r\n  }\r\n}",
  "sourcePath": "/mnt/c/Users/Lenovo/Desktop/Blockchain Developer/DApps/nft-gallery/src/contracts/NFTMarketplace.sol",
  "compiler": {
    "name": "solc",
    "version": "0.8.6+commit.11564f7e.Emscripten.clang"
  },
  "schemaVersion": "3.4.1",
  "updatedAt": "2021-08-06T08:31:16.316Z",
  "networkType": "ethereum",
  "devdoc": {
    "kind": "dev",
    "methods": {},
    "version": 1
  },
  "userdoc": {
    "kind": "user",
    "methods": {},
    "version": 1
  }
}