{
  "contractName": "NFTMarketplace",
  "abi": [
    {
      "inputs": [
        {
          "internalType": "address",
          "name": "_nftCollection",
          "type": "address"
        }
      ],
      "stateMutability": "nonpayable",
      "type": "constructor"
    },
    {
      "anonymous": false,
      "inputs": [
        {
          "indexed": false,
          "internalType": "address",
          "name": "user",
          "type": "address"
        },
        {
          "indexed": false,
          "internalType": "uint256",
          "name": "amount",
          "type": "uint256"
        }
      ],
      "name": "ClaimFunds",
      "type": "event"
    },
    {
      "anonymous": false,
      "inputs": [
        {
          "indexed": false,
          "internalType": "uint256",
          "name": "offerId",
          "type": "uint256"
        },
        {
          "indexed": false,
          "internalType": "uint256",
          "name": "id",
          "type": "uint256"
        },
        {
          "indexed": false,
          "internalType": "address",
          "name": "user",
          "type": "address"
        },
        {
          "indexed": false,
          "internalType": "uint256",
          "name": "price",
          "type": "uint256"
        },
        {
          "indexed": false,
          "internalType": "bool",
          "name": "fulfilled",
          "type": "bool"
        },
        {
          "indexed": false,
          "internalType": "bool",
          "name": "cancelled",
          "type": "bool"
        }
      ],
      "name": "Offer",
      "type": "event"
    },
    {
      "anonymous": false,
      "inputs": [
        {
          "indexed": false,
          "internalType": "uint256",
          "name": "offerId",
          "type": "uint256"
        }
      ],
      "name": "OfferCancelled",
      "type": "event"
    },
    {
      "anonymous": false,
      "inputs": [
        {
          "indexed": false,
          "internalType": "uint256",
          "name": "offerId",
          "type": "uint256"
        }
      ],
      "name": "OfferFilled",
      "type": "event"
    },
    {
      "stateMutability": "nonpayable",
      "type": "fallback"
    },
    {
      "inputs": [],
      "name": "offerCount",
      "outputs": [
        {
          "internalType": "uint256",
          "name": "",
          "type": "uint256"
        }
      ],
      "stateMutability": "view",
      "type": "function"
    },
    {
      "inputs": [
        {
          "internalType": "uint256",
          "name": "",
          "type": "uint256"
        }
      ],
      "name": "offers",
      "outputs": [
        {
          "internalType": "uint256",
          "name": "offerId",
          "type": "uint256"
        },
        {
          "internalType": "uint256",
          "name": "id",
          "type": "uint256"
        },
        {
          "internalType": "address",
          "name": "user",
          "type": "address"
        },
        {
          "internalType": "uint256",
          "name": "price",
          "type": "uint256"
        },
        {
          "internalType": "bool",
          "name": "fulfilled",
          "type": "bool"
        },
        {
          "internalType": "bool",
          "name": "cancelled",
          "type": "bool"
        }
      ],
      "stateMutability": "view",
      "type": "function"
    },
    {
      "inputs": [
        {
          "internalType": "address",
          "name": "",
          "type": "address"
        }
      ],
      "name": "userFunds",
      "outputs": [
        {
          "internalType": "uint256",
          "name": "",
          "type": "uint256"
        }
      ],
      "stateMutability": "view",
      "type": "function"
    },
    {
      "inputs": [
        {
          "internalType": "uint256",
          "name": "_id",
          "type": "uint256"
        },
        {
          "internalType": "uint256",
          "name": "_price",
          "type": "uint256"
        }
      ],
      "name": "makeOffer",
      "outputs": [],
      "stateMutability": "nonpayable",
      "type": "function"
    },
    {
      "inputs": [
        {
          "internalType": "uint256",
          "name": "_offerId",
          "type": "uint256"
        }
      ],
      "name": "fillOffer",
      "outputs": [],
      "stateMutability": "payable",
      "type": "function"
    },
    {
      "inputs": [
        {
          "internalType": "uint256",
          "name": "_offerId",
          "type": "uint256"
        }
      ],
      "name": "cancelOffer",
      "outputs": [],
      "stateMutability": "nonpayable",
      "type": "function"
    },
    {
      "inputs": [],
      "name": "claimFunds",
      "outputs": [],
      "stateMutability": "nonpayable",
      "type": "function"
    }
  ],
  "bytecode": "0x60806040523480156200001157600080fd5b50604051620012c7380380620012c7833981810160405281019062000037919062000096565b80600360006101000a81548173ffffffffffffffffffffffffffffffffffffffff021916908373ffffffffffffffffffffffffffffffffffffffff160217905550506200011b565b600081519050620000908162000101565b92915050565b600060208284031215620000af57620000ae620000fc565b5b6000620000bf848285016200007f565b91505092915050565b6000620000d582620000dc565b9050919050565b600073ffffffffffffffffffffffffffffffffffffffff82169050919050565b600080fd5b6200010c81620000c8565b81146200011857600080fd5b50565b61119c806200012b6000396000f3fe6080604052600436106100745760003560e01c806385dba8611161004e57806385dba861146101185780638a72ea6a14610134578063ac30777314610176578063ef706adf1461018d57610075565b806305b7cdd3146100875780631115c24d146100b05780638387c6e1146100db57610075565b5b34801561008157600080fd5b50600080fd5b34801561009357600080fd5b506100ae60048036038101906100a99190610ac5565b6101b6565b005b3480156100bc57600080fd5b506100c56103ad565b6040516100d29190610d67565b60405180910390f35b3480156100e757600080fd5b5061010260048036038101906100fd9190610a6b565b6103b3565b60405161010f9190610d67565b60405180910390f35b610132600480360381019061012d9190610a98565b6103cb565b005b34801561014057600080fd5b5061015b60048036038101906101569190610a98565b610643565b60405161016d96959493929190610d82565b60405180910390f35b34801561018257600080fd5b5061018b6106b9565b005b34801561019957600080fd5b506101b460048036038101906101af9190610a98565b610880565b005b600360009054906101000a900473ffffffffffffffffffffffffffffffffffffffff1673ffffffffffffffffffffffffffffffffffffffff166323b872dd3330856040518463ffffffff1660e01b815260040161021593929190610c27565b600060405180830381600087803b15801561022f57600080fd5b505af1158015610243573d6000803e3d6000fd5b5050505060008081548092919061025990610e92565b91905055506040518060c0016040528060005481526020018381526020013373ffffffffffffffffffffffffffffffffffffffff168152602001828152602001600015158152602001600015158152506001600080548152602001908152602001600020600082015181600001556020820151816001015560408201518160020160006101000a81548173ffffffffffffffffffffffffffffffffffffffff021916908373ffffffffffffffffffffffffffffffffffffffff1602179055506060820151816003015560808201518160040160006101000a81548160ff02191690831515021790555060a08201518160040160016101000a81548160ff0219169083151502179055509050507f93e711896d4ef527d199d7e101922e20f918cbb248a0fb0977c52fda24aa1f1d6000548333846000806040516103a196959493929190610d82565b60405180910390a15050565b60005481565b60026020528060005260406000206000915090505481565b6000600160008381526020019081526020016000209050818160000154146103f257600080fd5b8060040160009054906101000a900460ff1615610444576040517f08c379a000000000000000000000000000000000000000000000000000000000815260040161043b90610cc7565b60405180910390fd5b8060040160019054906101000a900460ff1615610496576040517f08c379a000000000000000000000000000000000000000000000000000000000815260040161048d90610c87565b60405180910390fd5b806003015434146104dc576040517f08c379a00000000000000000000000000000000000000000000000000000000081526004016104d390610d07565b60405180910390fd5b600360009054906101000a900473ffffffffffffffffffffffffffffffffffffffff1673ffffffffffffffffffffffffffffffffffffffff166323b872dd303384600101546040518463ffffffff1660e01b815260040161053f93929190610c27565b600060405180830381600087803b15801561055957600080fd5b505af115801561056d573d6000803e3d6000fd5b5050505060018160040160006101000a81548160ff02191690831515021790555034600260008360020160009054906101000a900473ffffffffffffffffffffffffffffffffffffffff1673ffffffffffffffffffffffffffffffffffffffff1673ffffffffffffffffffffffffffffffffffffffff16815260200190815260200160002060008282546106019190610df4565b925050819055507f1cbca78589bbc7eff0ee1cf1e0de1e3e0ab847c1bee6a5eb22af1fac2903a6a4826040516106379190610d67565b60405180910390a15050565b60016020528060005260406000206000915090508060000154908060010154908060020160009054906101000a900473ffffffffffffffffffffffffffffffffffffffff16908060030154908060040160009054906101000a900460ff16908060040160019054906101000a900460ff16905086565b6000600260003373ffffffffffffffffffffffffffffffffffffffff1673ffffffffffffffffffffffffffffffffffffffff168152602001908152602001600020541161073b576040517f08c379a000000000000000000000000000000000000000000000000000000000815260040161073290610ca7565b60405180910390fd5b3373ffffffffffffffffffffffffffffffffffffffff166108fc600260003373ffffffffffffffffffffffffffffffffffffffff1673ffffffffffffffffffffffffffffffffffffffff168152602001908152602001600020549081150290604051600060405180830381858888f193505050501580156107c0573d6000803e3d6000fd5b507f4f0554190111f93f8c2ccef2cc41473f187d7f29ff5a5c308ca41f9dfe4e989a33600260003373ffffffffffffffffffffffffffffffffffffffff1673ffffffffffffffffffffffffffffffffffffffff16815260200190815260200160002054604051610831929190610c5e565b60405180910390a16000600260003373ffffffffffffffffffffffffffffffffffffffff1673ffffffffffffffffffffffffffffffffffffffff16815260200190815260200160002081905550565b6000600160008381526020019081526020016000209050818160000154146108a757600080fd5b3373ffffffffffffffffffffffffffffffffffffffff168160020160009054906101000a900473ffffffffffffffffffffffffffffffffffffffff1673ffffffffffffffffffffffffffffffffffffffff1614610939576040517f08c379a000000000000000000000000000000000000000000000000000000000815260040161093090610d47565b60405180910390fd5b600015158160040160009054906101000a900460ff16151514610991576040517f08c379a000000000000000000000000000000000000000000000000000000000815260040161098890610ce7565b60405180910390fd5b600015158160040160019054906101000a900460ff161515146109e9576040517f08c379a00000000000000000000000000000000000000000000000000000000081526004016109e090610d27565b60405180910390fd5b60018160040160016101000a81548160ff0219169083151502179055507fc28b4aed030bfacc245c0501326e1beb8c0ef0d60e4edc21067fdeb52da2a7aa82604051610a359190610d67565b60405180910390a15050565b600081359050610a5081611138565b92915050565b600081359050610a658161114f565b92915050565b600060208284031215610a8157610a80610f0a565b5b6000610a8f84828501610a41565b91505092915050565b600060208284031215610aae57610aad610f0a565b5b6000610abc84828501610a56565b91505092915050565b60008060408385031215610adc57610adb610f0a565b5b6000610aea85828601610a56565b9250506020610afb85828601610a56565b9150509250929050565b610b0e81610e4a565b82525050565b610b1d81610e5c565b82525050565b6000610b30602983610de3565b9150610b3b82610f0f565b604082019050919050565b6000610b53602483610de3565b9150610b5e82610f5e565b604082019050919050565b6000610b76602283610de3565b9150610b8182610fad565b604082019050919050565b6000610b99602a83610de3565b9150610ba482610ffc565b604082019050919050565b6000610bbc602e83610de3565b9150610bc78261104b565b604082019050919050565b6000610bdf602283610de3565b9150610bea8261109a565b604082019050919050565b6000610c02602b83610de3565b9150610c0d826110e9565b604082019050919050565b610c2181610e88565b82525050565b6000606082019050610c3c6000830186610b05565b610c496020830185610b05565b610c566040830184610c18565b949350505050565b6000604082019050610c736000830185610b05565b610c806020830184610c18565b9392505050565b60006020820190508181036000830152610ca081610b23565b9050919050565b60006020820190508181036000830152610cc081610b46565b9050919050565b60006020820190508181036000830152610ce081610b69565b9050919050565b60006020820190508181036000830152610d0081610b8c565b9050919050565b60006020820190508181036000830152610d2081610baf565b9050919050565b60006020820190508181036000830152610d4081610bd2565b9050919050565b60006020820190508181036000830152610d6081610bf5565b9050919050565b6000602082019050610d7c6000830184610c18565b92915050565b600060c082019050610d976000830189610c18565b610da46020830188610c18565b610db16040830187610b05565b610dbe6060830186610c18565b610dcb6080830185610b14565b610dd860a0830184610b14565b979650505050505050565b600082825260208201905092915050565b6000610dff82610e88565b9150610e0a83610e88565b9250827fffffffffffffffffffffffffffffffffffffffffffffffffffffffffffffffff03821115610e3f57610e3e610edb565b5b828201905092915050565b6000610e5582610e68565b9050919050565b60008115159050919050565b600073ffffffffffffffffffffffffffffffffffffffff82169050919050565b6000819050919050565b6000610e9d82610e88565b91507fffffffffffffffffffffffffffffffffffffffffffffffffffffffffffffffff821415610ed057610ecf610edb565b5b600182019050919050565b7f4e487b7100000000000000000000000000000000000000000000000000000000600052601160045260246000fd5b600080fd5b7f4f6e6c79206e6f6e2d63616e63656c6c6564206f66666572732063616e20626560008201527f2065786563757465640000000000000000000000000000000000000000000000602082015250565b7f54686973207573657220686173206e6f2066756e647320746f20626520636c6160008201527f696d656400000000000000000000000000000000000000000000000000000000602082015250565b7f416e206f666665722063616e6e6f742062652066756c66696c6c65642074776960008201527f6365000000000000000000000000000000000000000000000000000000000000602082015250565b7f4f6e6c79206e6f6e2d66756c66696c6c6564206f72646572732063616e20626560008201527f2063616e63656c6c656400000000000000000000000000000000000000000000602082015250565b7f5468652045544820616d6f756e742073686f756c64206d61746368207769746860008201527f20746865204e4654205072696365000000000000000000000000000000000000602082015250565b7f416e206f666665722063616e6e6f742062652063616e63656c6c65642074776960008201527f6365000000000000000000000000000000000000000000000000000000000000602082015250565b7f546865206f666665722063616e206f6e6c792062652063616e63656c6564206260008201527f7920746865206f776e6572000000000000000000000000000000000000000000602082015250565b61114181610e4a565b811461114c57600080fd5b50565b61115881610e88565b811461116357600080fd5b5056fea2646970667358221220352fcb0c0c62245c00796754bfd690982fc126547e985fda8bf70763c87a297664736f6c63430008060033",
  "immutableReferences": {},
  "source": "// SPDX-License-Identifier: MIT\r\npragma solidity ^0.8.0;\r\n\r\nimport \"./NFTCollection.sol\";\r\n\r\ncontract NFTMarketplace {\r\n  uint public offerCount;\r\n  mapping (uint => _Offer) public offers;\r\n  mapping (address => uint) public userFunds;\r\n  NFTCollection nftCollection;\r\n  \r\n  struct _Offer {\r\n    uint offerId;\r\n    uint id;\r\n    address user;\r\n    uint price;\r\n    bool fulfilled;\r\n    bool cancelled;\r\n  }\r\n\r\n  event Offer(\r\n    uint offerId,\r\n    uint id,\r\n    address user,\r\n    uint price,\r\n    bool fulfilled,\r\n    bool cancelled\r\n  );\r\n\r\n  event OfferFilled(uint offerId);\r\n  event OfferCancelled(uint offerId);\r\n  //event OfferModified(uint offerId, uint price);\r\n  event ClaimFunds(address user, uint amount);\r\n\r\n  constructor(address _nftCollection) {\r\n    nftCollection = NFTCollection(_nftCollection);\r\n  }\r\n  \r\n  function makeOffer(uint _id, uint _price) public {\r\n    nftCollection.transferFrom(msg.sender, address(this), _id);\r\n    offerCount ++;\r\n    offers[offerCount] = _Offer(offerCount, _id, msg.sender, _price, false, false);\r\n    emit Offer(offerCount, _id, msg.sender, _price, false, false);\r\n  }\r\n\r\n  function fillOffer(uint _offerId) public payable {\r\n    _Offer storage _offer = offers[_offerId];\r\n    require(_offer.offerId == _offerId); // the offer must exist\r\n    require(!_offer.fulfilled, 'An offer cannot be fulfilled twice');\r\n    require(!_offer.cancelled, 'Only non-cancelled offers can be executed');\r\n    require(msg.value == _offer.price, 'The ETH amount should match with the NFT Price');\r\n    nftCollection.transferFrom(address(this), msg.sender, _offer.id);\r\n    _offer.fulfilled = true;\r\n    userFunds[_offer.user] += msg.value;\r\n    emit OfferFilled(_offerId);\r\n  }\r\n\r\n  function cancelOffer(uint _offerId) public {\r\n    _Offer storage _offer = offers[_offerId];\r\n    require(_offer.offerId == _offerId); // the offer must exist\r\n    require(_offer.user == msg.sender, 'The offer can only be canceled by the owner');\r\n    require(_offer.fulfilled == false, 'Only non-fulfilled orders can be cancelled');\r\n    require(_offer.cancelled == false, 'An offer cannot be cancelled twice');\r\n    _offer.cancelled = true;\r\n    emit OfferCancelled(_offerId);\r\n  }\r\n\r\n  // function changePrice(uint _offerId, uint _newPrice) public {\r\n  //   _Offer storage _offer = offers[_offerId];\r\n  //   require(_offer.offerId == _offerId); // the offer must exist\r\n  //   require(_offer.user == msg.sender, 'Only the owner can modify its offer');\r\n  //   require(_offer.fulfilled == false, 'Only non-fulfilled orders can be modified');\r\n  //   require(_offer.cancelled == false, 'Only non-cancelled orders can be modified');\r\n  //   _offer.price = _newPrice;\r\n  //   emit OfferModified(_offerId, _newPrice);\r\n  // }\r\n\r\n  function claimFunds() public {\r\n    require(userFunds[msg.sender] > 0, 'This user has no funds to be claimed');\r\n    payable(msg.sender).transfer(userFunds[msg.sender]);\r\n    emit ClaimFunds(msg.sender, userFunds[msg.sender]);\r\n    userFunds[msg.sender] = 0;    \r\n  }\r\n\r\n  // Fallback: reverts if Ether is sent to this smart contract by mistake\r\n  fallback () external {\r\n    revert();\r\n  }\r\n}",
  "sourcePath": "/mnt/c/Users/Lenovo/Desktop/Blockchain Developer/DApps/nft-gallery/src/contracts/NFTMarketplace.sol",
  "compiler": {
    "name": "solc",
    "version": "0.8.6+commit.11564f7e.Emscripten.clang"
  },
  "schemaVersion": "3.4.1",
  "updatedAt": "2021-08-05T16:39:39.002Z",
  "devdoc": {
    "kind": "dev",
    "methods": {},
    "version": 1
  },
  "userdoc": {
    "kind": "user",
    "methods": {},
    "version": 1
  }
}